:100000000C944A000C945C000C945C000C945C0012
:100010000C945C000C945C000C945C000C945C00F0
:100020000C945C000C945C000C945C000C945C00E0
:100030000C945C000C945C000C945C000C945C00D0
:100040000C946C000C945C000C945C000C945C00B0
:100050000C945C000C945C000C945C000C945C00B0
:100060000C945C000C947D000C945C000C945C007F
:100070000C945C000C945C000C945C000C945C0090
:100080000C9416030C945C000C9452030C945C00CA
:100090000C945C0011241FBECFEFD0E1DEBFCDBFBA
:1000A00013E0A0E0B1E001C01D92A431B107E1F777
:1000B0000E9429060C94F1060C94000010920E0187
:1000C000109202011092010182E080936E008BE099
:1000D00084BD89EF87BD08951F920F920FB60F92CE
:1000E00011248F9380910E018F5F80930E018F9169
:1000F0000F900FBE0F901F9018951F920F920FB682
:100100000F9211240BB60F922F938F939F93EF931F
:10011000FF93E0911601F0E0809178002091790042
:1001200090E0922BEE0FFF1FE35EFE4F91838083E2
:10013000809116018F5F8093160181111092160134
:10014000E0911601F0E0E95EFE4F808180648093CB
:100150007C0080917A00806480937A00FF91EF9117
:100160009F918F912F910F900BBE0F900FBE0F900C
:100170001F901895109216011092170181E080933C
:10018000180182E080931901EAE7F0E080E88083BB
:10019000808187608083808188608083A091160140
:1001A000B0E0A95EBE4F8C91806480937C0080811A
:1001B00080648083089580911C0181110FC020917B
:1001C00012013091130180911401909115012817AB
:1001D000390798F481E080931C010895813069F417
:1001E0002091120130911301809114019091150119
:1001F0002817390710F010921C010895809104010E
:10020000882331F08130F1F410920401769A089538
:1002100020910A012F5F20930A0180910901821722
:100220002CF0769881E0809304010895332727FD10
:100230003095992787FD909504968217930714F4BB
:1002400010920A0108956E9A10920A0181E080933B
:10025000090110920401089580B180748093030114
:1002600080B18078809303010895169A179A0C94B0
:100270002C010F931F93CF93DF930E9461048FEFA4
:100280009FEF909321018093200184E2809370027C
:1002900080E58093710286E48093720282E5809308
:1002A000730204E712E088E4F8018083C5E7D2E036
:1002B00089E488838CE28093760292E390937702BC
:1002C0008093780291E39093790280937A029093DD
:1002D0007B0280937C0280910001805D80937D028F
:1002E0008EE090E090931103809310030E94DB0551
:1002F00083E5F801808384E5888387E090E090932C
:1003000011038093100310920501109206011092C0
:100310000701109208011092180110921901109211
:100320001A0110921B01DF91CF911F910F91089537
:100330008091CC01803509F056C08091CD01863482
:1003400009F051C08091CE01823509F04CC08091F6
:10035000CF01833591F48091D001803509F043C0FD
:1003600085E090E090936D0280936C020E9471048E
:10037000909315018093140108958334E9F48091DA
:10038000D001803581F585E090E090936D028093F7
:100390006C020E9471049093100180930F01809170
:1003A0006C0290916D020196F1F00E94710490939D
:1003B0000D0180930C0108958235A9F48091D0013C
:1003C000833589F485E090E090936D0280936C0210
:1003D00010922101109220010E9471048093220149
:1003E00081E080930B01089587E090E090931103E2
:1003F0008093100380911101992787FD90950E94A9
:10040000B90580911201909113010E94B905809164
:100410002201992787FD90950E94B90580911003CC
:1004200090911103019790931103809310030C9402
:10043000DB0580911C01813011F485E025C080919D
:10044000200190912101039730F084E08093110105
:1004500010920B0115C080910B01811104C083E043
:10046000809311010DC080916E0290916F02892BD3
:1004700051F082E08093110110926F0210926E028F
:100480001092220103C081E080931101809111013B
:1004900080930901089580910101909102010196D4
:1004A000803127E2920729F09093020180930101A5
:1004B00004C01092020110920101209101013091BB
:1004C0000201C9016AE070E00E947006892B09F000
:1004D0003FC0A895C90164E670E00E947006892BB0
:1004E000F1F480910C0190910D01892B51F08091D4
:1004F0002001909121010196909321018093200188
:1005000004C0109221011092200180911D01909150
:100510001E0190931301809312010E941902809191
:1005200001019091020168EC70E00E947006892B35
:1005300079F40E942C010E94FE00809122019927EB
:1005400087FD90950E94D6020E94DB000C94F40176
:10055000089584B714BE843081F02CF4813041F0CA
:10056000823049F00895883051F0803151F008957B
:1005700010920001089581E005C082E003C083E08D
:1005800001C084E0809300010895E0E8F0E08081FC
:10059000826A8083E1E8F0E080818B61808387E874
:1005A00093E190938700809386000895259A0097A1
:1005B00019F410921F010AC08130910511F481E0F5
:1005C00003C00297B1F782E080931F0180911F0161
:1005D000813019F485E491E002C084EF91E09093BA
:1005E0008900809388000895E9ECF0E088E1808339
:1005F0001092CD0080E18093CC0086E08093CA0009
:100600008081806880831092770110927601109229
:100610002401109223011092CB011092CA01109272
:100620007901109278011092750108951F920F922E
:100630000FB60F9211240BB60F922F933F938F9307
:100640009F93EF93FF9380917601909177010196AC
:100650008035910529F0909377018093760104C04D
:100660001092770110927601809176019091770136
:1006700020912301309124018217930731F02091BA
:10068000CE00FC01EB5DFE4F2083FF91EF919F9127
:100690008F913F912F910F900BBE0F900FBE0F9037
:1006A0001F9018951F920F920FB60F9211240BB640
:1006B0000F922F933F938F939F93EF93FF9380918C
:1006C0007801909179012091CA013091CB012817CE
:1006D0003907B9F001968035910529F09093790199
:1006E0008093780104C01092790110927801E09112
:1006F0007801F0917901E658FE4F80818093CE0019
:1007000007C08091C9008F7B8093C900109275014A
:10071000FF91EF919F918F913F912F910F900BBE81
:100720000F900FBE0F901F9018952091CA01309125
:10073000CB0180917801909179012817390711F147
:1007400081E0809375018091C90080648093C90025
:10075000809178019091790101968035910529F079
:10076000909379018093780104C0109279011092DE
:100770007801E0917801F0917901E658FE4F80818F
:100780008093CE0008952091CA013091CB012F5F54
:100790003F4F2035310529F03093CB012093CA011A
:1007A00004C01092CB011092CA012091CA0130916D
:1007B000CB0140917801509179012417350721F040
:1007C000F901E658FE4F808380917501811102C0C6
:1007D0000C94950308959091C80095FFFCCF8093E9
:1007E000CE000895FC012081222389F12091CA01C5
:1007F0003091CB012F5F3F4F2035310529F03093E9
:10080000CB012093CA0104C01092CB011092CA01FF
:100810002091CA013091CB0140917801509179012A
:100820002417350741F0F901E658FE4FDC014C91E1
:10083000408320E009C01092CB011092CA011092AF
:1008400079011092780121E00196222359F28091DA
:100850007501811102C00C94950308958091C80020
:100860008074089581E04091760150917701209144
:100870002301309124014217530709F480E00895C1
:10088000809123019091240101968035910529F0F2
:10089000909324018093230104C0109224011092AC
:1008A0002301E0912301F0912401EB5DFE4F808153
:1008B00008958091C80087FF03C08091CE00F9CFD2
:1008C00008958FEF9FEF909313038093120310927C
:1008D0006F0210926E028DE00E94C3038AE00C94B6
:1008E000C303FF920F931F93CF93DF93C0916C02CA
:1008F000D0916D02FE01E453FE4F80818C3291F560
:100900002196FE01E453FE4F2081CE012C3251F19D
:1009100020911203309113038E0104531E4FC2170E
:10092000D3078CF0F801F080108284539E4F0E9410
:100930008406F801F082FCE2FF120DC0D0936D0234
:10094000C0936C0211C0F80140814C3259F34A3215
:1009500049F32196E1CF2FEF3FEF30936D022093C3
:100960006C0202C080E090E0DF91CF911F910F9167
:10097000FF900895CF93DF9380911203909113031A
:10098000181619066CF584E20E94C30385E40E94E0
:10099000C30385E40E94C30385E40E94C30385E486
:1009A0000E94C30385E40E94C3038CE20E94C30338
:1009B000CCECD1E080911203909113039E012C5C4A
:1009C00031402817390724F489910E94C303F2CFDC
:1009D0008DE00E94C3038AE0DF91CF910C94C303A2
:1009E000DF91CF910895CF93DF93CFEFDFEF0E9498
:1009F0003204882309F498C00E9440042091120315
:100A000030911303843289F42F3F3F4F49F0809196
:100A10006E0290916F02019690936F0280936E0226
:100A20001092130310921203E2CF8D3019F08A3026
:100A300009F04EC0243031050CF445C02930310591
:100A4000ECF1C9010397FC01E453FE4F40814A32A7
:100A5000C1F5ECECF1E060E041916427AF014C5C42
:100A6000514048175907C4F324533E4FF9013297B8
:100A700080818A3314F4805309C0873414F4875377
:100A800005C0873614F4875501C080E040E1849F9B
:100A9000C0011124F901319720812A3314F4205325
:100AA00009C0273414F4275305C0273614F42755FA
:100AB00001C020E0282B62132DC003C02630310571
:100AC0004CF10E949801D0931303C09312038FCF6F
:100AD0002F3F9FEF390709F48ACFA9014F5F5F4F7E
:100AE0005093130340931203F901E453FE4F8083A4
:100AF000403A510509F07BCFD0931303C093120302
:100B000080916E0290916F02019690936F02809394
:100B10006E026DCF80916E0290916F02019690935C
:100B20006F0280936E02CFCFDF91CF9108956091D5
:100B300010037091110360597D4F4AE050E00E940C
:100B4000A20680911003909111039C010196FC0173
:100B5000E159FD4F40814111F8CFC90101969093B1
:100B6000110380931003F901E059FD4F8CE280835B
:100B70000895609110037091110360597D4F4AE010
:100B800050E00E94A20680911003909111039C01F5
:100B90000196FC01E159FD4F40814111F8CFC90197
:100BA00001969093110380931003F901E059FD4FD2
:100BB0008CE2808308952091100330911103B901D4
:100BC0006F5F7F4F7093110360931003F901E05939
:100BD000FD4F8AE28083E1E7F2E080E0AF01405719
:100BE0005240421753071CF491918927F7CF60595F
:100BF0007D4F40E150E090E00E94CB062091100331
:100C000030911103A9014E5F5F4FC9018417950709
:100C100061F0FC01E059FD4F60817FE9760F76308D
:100C200010F4605260830196F1CF2E5F3F4FF901BF
:100C3000E059FD4F8DE080838AE081832D5F3F4F37
:100C40003093110320931003128280E792E00C94FA
:100C5000F2030E94A9020E945E000E9423010E94EA
:100C600035010E94BA000E94F4020E94C50284E18C
:100C700090E09093100180930F0181E090E09093B9
:100C80000D0180930C0183E090E09093210180930B
:100C9000200180E491E0909315018093140110925B
:100CA0001C010E941902789428E088E190E00FB6B8
:100CB000F894A895809360000FBE209360000E9476
:100CC000390180910E01882341F080910E018150FD
:100CD00080930E010E944B02F4CF0E94F304F1CFE7
:100CE000AA1BBB1B51E107C0AA1FBB1FA617B70752
:100CF00010F0A61BB70B881F991F5A95A9F780956E
:100D00009095BC01CD010895FC0188279927E894AE
:100D100021912032E9F3293010F02E30C8F32B3224
:100D200041F02D3239F4689404C00E94C306820F4A
:100D3000911D219120532A30C0F31EF49095819586
:100D40009F4F0895FB019F01E8944230C4F0453263
:100D5000B4F44A3029F497FB1EF4909581959F4F87
:100D6000642F77270E947006805D8A330CF0895DBE
:100D70008193CB010097A1F716F45DE251931082A5
:100D8000C9010C94E1067AE0979F902D879F802DF2
:100D9000910D11240895FB019F01423074F04532FA
:100DA00064F4642F77270E947006805D8A330CF00C
:100DB000895D8193CB010097A1F71082C9010C9442
:100DC000E106DC01FC01672F71917723E1F732978F
:100DD00004C07C916D9370836291AE17BF07C8F316
:060DE0000895F894FFCF16
:00000001FF
